:020000040000FA
:100000008316083085002A28A0000308A1000408F0
:10001000A20083120B1D12280E0EA4060F08A406C0
:1000200023140B110C1C21280108A4062A082B3EBE
:10003000840024088000AA0A2A08083A0319AA01A1
:100040000C10220884002108830020080315211DBC
:10005000031109000830950096000F30810001302F
:100060008C00FF30900083122030840040309720B5
:100070000730990003308A008501E8308B008C013D
:10008000153090006400231C422823104920692069
:100090004228333084000830A7000408A60027084F
:1000A0002A3E84000008A500260884000330A50C21
:1000B000031C800A03188003031D6228031C8003AD
:1000C0000318800A840AFF3E031D5728A70B4D28FA
:1000D00008008B13333084000830A7007B20A70B67
:1000E0006E2874208B170800FF3000000000FF3ED0
:1000F000031D752808000330A8000008A900083077
:10010000A90D031885288D2086289120FF3E031D08
:100110008028840AA80B7D28080005140514051002
:1001200008000514051405140514051008008001C5
:0A013000840AFF3E031D9728080013
:0840000000000A0000000100AD
:02400E004A3E28
:00000001FF
